:08000000962E04000000000030
:04000C0034080000B4
:10001000160800003408000034080000340800000E
:1000200034080000340800003408000034080000E0
:100030003408000074070000340800003408000091
:10004000340800007004000034080000C2070000FB
:10005000DE070000FA070000340800003408000042
:10006000340800001E0300003408000034080000BB
:10007000340800003408000034080000FC030000CD
:10008000B802000034080000340800003408000002
:100090003408000034080000340800003408000070
:1000A0003408000034080000340800003408000060
:1000B0003408000034080000340800003408000050
:1000C0003408000034080000A607000034080000CF
:1000D0003408000034080000340800003408000030
:1000E0003408000034080000340800003408000020
:1000F0003408000034080000340800003408000010
:100200003220EF00C3102000008041001040BA00EF
:100210000160EF000000060025300000327500008C
:100220003A25000030320000753A00002530000009
:100230003275000020540000494D00004553000075
:1002400045540000000000003220EF00031320009E
:10025000008041001040BA000160EF00000006007D
:1002600025300000327500003A25000030320000D1
:100270007520000020410000435400004C4D000058
:1002800056420000500000003220EF00031520000D
:10029000008041001040BA000160EF00000006003D
:1002A000414C0000415200004D450000202000005C
:1002B00020200000000000003220EF008316200004
:1002C000008041001040BA000160EF00000006000D
:1002D00025300000327500003A2500003032000061
:1002E000752000002020000020200000204A00008F
:1002F00020530000000000003220EF00831820008F
:10030000008041001040BA000160EF0000000600CC
:1003100043410000524900004C4C00004F4E000089
:10032000000000003220EF00E319200000804100AF
:100330001040BA000160EF00000006004C550000BC
:100340004D20000020200000204D000041580000FA
:100350002025000030330000750000003220EF003F
:10036000A31B2000008041001040BA000160EF0094
:10037000000006002020000020200000444500006E
:100380004C410000495300002020000025300000AF
:1003900032750000000000003220EF00831D2000B5
:1003A000008041001040BA000160EF00000006002C
:1003B0004A4F000055520000532000002044000026
:1003C0004C4D00004D4A0000565300000000000054
:1003D0003220EF00431F2000008041001040BA008F
:1003E0000160EF0000000600534E00004F4F000078
:1003F0005A450000000000003220EF00832020005A
:10040000008041001040BA000160EF0000000600CB
:100410002530000032750000206D0000696E00007C
:10042000000000003220EF00E321200000804100A6
:100430001040BA000160EF00000006004D4F0000C0
:100440004F44000020200000202000002048000031
:100450002025000030330000750000003220EF003E
:10046000A3232000008041001040BA000160EF008B
:10047000000006002020000020530000202500007E
:1004800030330000752000005620000025300000A9
:1004900033750000000000003220EF0083252000AB
:1004A000008041001040BA000160EF00000006002B
:1004B000564F00004C5500004D4500002020000024
:1004C0002530000033750000000000003220EF00EE
:1004D00023272000008041001040BA000160EF0097
:1004E00000000600544F00004E4500002020000090
:1004F00020200000202000002575000000000000E2
:100500003220EF00C3282000008041001040BA00D4
:100510000160EF000000060050480000532000007A
:100520002530000034750000202500003035000023
:10053000750000003220EF00632A20000080410097
:100540001040BA000160EF0000000600444C0000BB
:1005500059200000253000003475000020200000E4
:100560002530000035750000000000000240010049
:100570004200F8003600F800801F780020002000BC
:100580000C000900B01F7800B768EC00B448E20026
:1005900005003200B4C8BF00B44580004822DE0028
:1005A0000024E10003003600C6E2A900CAE2A90067
:1005B00002003700C6E2A900CAE2A800B548E2007E
:1005C00005003200B5C8BF00B44580004822DE00F7
:1005D0000024E10003003600C622A900CA22A900B7
:1005E00002003700C622A900CA22A800B648E200CD
:1005F00005003200B6C8BF00B44580004822DE00C6
:100600000024E10003003600C602A900CA02A900C6
:1006100002003700C602A900CA02A80086C0A900CD
:10062000A00120000C0009004F1078004F00780056
:100630003600F9004200F900004006004200F800D0
:100640003600F800801F7800200020000C00090010
:10065000B01F7800C662A8006609A900C862AF0092
:100660006609A8006669A9001421EF00E208F800F5
:100670001A01F900EA28EC006609AE000300370011
:1006800010C0B300E6E8B7008EA0A8006749A90033
:100690006729AF006749A8006729A9006709AF006B
:1006A0006729A800C642A8006709A900C842AF0090
:1006B0006709A8006709AF00180037006729AF0075
:1006C000160037006749AE0014003700A4438000CD
:1006D0006020E1000800390004003E0094438000DF
:1006E000430B20000418E10003003E006649A80007
:1006F0006629A900040037006649A9006629A800F8
:100700007228EF007428EF006608F8005E09F9000F
:100710006808F8006009F900090037006709AE00B1
:10072000070037006729AE00050037006749AE00B3
:10073000030037007228EC004220AF007428EC0060
:100740002769EC0027C9BF000160EF000160EF00DE
:10075000040120000000FB00110009000400D80083
:100760000140780027E9B70085E0A900A00120003A
:100770000C0009004F1078004F0078003600F90097
:100780004200F90000400600D802A900DC02A900DE
:1007900000000600851F7800E708AE000300370060
:1007A0006E28EC004220AF007028EC00C403020069
:1007B00000000000E708A800CF0278000000060053
:1007C000D802A900DC02A80000000600851F7800FE
:1007D000E708AF00030037006E28EC004220AF00AE
:1007E0007028EC00E003020000000000E708A90008
:1007F000CF027800000006004200F8003600F80042
:10080000801F7800200020000C000900B01F780035
:10081000E828EC00E6C8BF000160EF000080B200ED
:10082000070032001080B200070032003080B200B2
:100830000D0032001080B2001700320017003700A0
:100840008EA0A90015003700E408F8001A01F9008D
:100850000621EF00CA0302000000000020C0B30020
:10086000E6E8B7000D00370034088000730620006A
:100870000418E10003003E006E28EC004220AF00A7
:100880007028EC00E60302000000000030C0B30056
:10089000E6E8B700010037000000370086A0A90095
:1008A000A00120000C0009004F1078004F007800D4
:1008B0003600F9004200F9000040060067016000C0
:1008C0004300DE0001004000104078000010A50049
:1008D0000000EB004200AF000000E800000006004E
:1008E0004200F8003600F800801F78002000200049
:1008F0000C000900B01F7800C821A900AFC8BF00D4
:10090000800278008502FB0005007800C18B200082
:100910005E040200000000000000A6000100370095
:10092000C821A800AF68EC00AFC8BF000160EF00AD
:100930000160EF00E40020000000FB00110009004E
:100940000400D80001407800AFE8B70084E0A900B7
:10095000A00120000C0009004F1078004F00780023
:100960003600F9004200F90000400600851F7800BB
:10097000C500200003000900B51F78000900200011
:100980004300AF0019002000891F78000002EB002F
:100990008002EB000003EB008003EB00030469001E
:1009A00011003200080220004200A9000080D2009D
:1009B0008180D2000482D2008582D2000328E10027
:1009C00001003A0002A0E1000300390002025200D7
:1009D00083825A004200A8000683D2008783D20097
:1009E0000804E900F0FF3A0087007800060078006C
:1009F000CF0478000900E000010032000400BE00CE
:100A00002501200003000900CF127800CF027800F2
:100A100000000600851F7800C500200003000900C3
:100A2000B51F78000202B8000303B8004200A90015
:100A30008502430060844B00020BB80085024B0026
:100A400008844B00030BB800080443000780B00083
:100A5000870178000801780085007800040078009C
:100A60002501200003000900CF127800CF02780092
:100A700000000600851F7800861F78004300A9004B
:100A80008052800091528000C203200003002000A9
:100A9000B6040200000000007053880081538800F3
:100AA000C0032000010020007253800083538000A7
:100AB0000A0502000000000084528000000052007D
:100AC000105388009452800001005A00205388007F
:100AD0004300A9007053800081538000C2032000AE
:100AE00003002000B60402000000000090538800BC
:100AF000A1538800C0032000010020009253800011
:100B0000A35380000A050200000000007453800017
:100B100000005200F05288008453800001005A0007
:100B2000005388004300A90090538000A153800027
:100B30008201200003002000B60402000000000033
:100B4000B0538800C15388008001200001002000BC
:100B5000B2538000C35380000A0502000000000069
:100B60009453800000005200B0528800A4538000CB
:100B700001005A00C0528800D4162000B3538000F0
:100B800084824100C453800060024A00040378005C
:100B9000E416200004804200D053880060034B001C
:100BA000E65388004300A900D0538000E153800041
:100BB000525B200003002000B60402000000000089
:100BC000F0538800015488004300A800D0538000EF
:100BD000E1538000525B200003002000B6040200B5
:100BE0000000000010548800215488002454800024
:100BF0006020E1000800390004003E001454800029
:100C0000C30320000418E10003003E007E2AEC002C
:100C10004220AF00802AEC00D4538000F3538000C0
:100C200083025200E45380000354800003035A00FF
:100C30004300A9000500780086007800D216200045
:100C400003002000B60402000000000030548800B9
:100C5000415488003054800041548000D216200056
:100C6000030020000A05020000000000D4538000A9
:100C700080025200E453800001035A00F4538000C4
:100C800004805200505488000454800004005B002B
:100C900060548800245480006020E10010003E0071
:100CA0000400390014548000D31620000418E10019
:100CB0000B003900245480006020E1000800390056
:100CC00004003E0014548000C30320000418E10017
:100CD00003003E008A2AEC004220AF008C2AEC0080
:100CE00044042000335480000480410050538800A5
:100CF0004454800060024A0064538800D4002000FD
:100D000034538800682AEF00E416200074548800E9
:100D1000902AEF0060548000845480000020E1009D
:100D20004600390004003E00505480007454800096
:100D30000020E10041003600662AED004200AE00CE
:100D4000682AED0034538000E102520044538000D1
:100D500060035A00240020000960EF0005007800BD
:100D6000860078000402E8000402E9000300320073
:100D70000000D0008180D200FBFF3700C48E20002D
:100D800004004000E4A82000301A7800301A7800EF
:100D9000445380006020E1000E00390003003E0053
:100DA000345380006220E1000A0036005053800076
:100DB000E30260000003EB000500E00005003A00DC
:100DC0000600E00003003A008E2AEC004220AF004B
:100DD000902AEC0054548000735480008302520027
:100DE000645480008354800003035A00E18242006F
:100DF000D552880060034B00E6528800B45380004F
:100E00006402420084027800C453800060024A00F9
:100E1000040378004300A8000500780086007800ED
:100E20007200200003002000B60402000000000051
:100E300090548800A1548800B6FF3700E0002000DD
:100E4000540AB40080027800545480008402980050
:100E500000002000540AB40080027800145380007F
:100E60008402980020002000540AB4008002780018
:100E7000F45280008402980040002000540AB4001C
:100E800080027800B4528000840298006000200044
:100E9000540AB40080027800D45280008402980082
:100EA000C0002000540AB4008002780094548000EE
:100EB0008402980080002000540AB4008002780068
:100EC0003453800084029800A0002000540AB4002B
:100ED0008002780054538000840298004F03780009
:100EE000CF027800000006004200F8003600F8004B
:100EF000801F7800200020000C000900B01F78003F
:100F00006628EC004220AF006828EC006608F80074
:100F1000500AF9006808F800520AF900849220008B
:100F2000A45288003A050200000000008460A90075
:100F3000A00120000C0009004F1078004F0078003D
:100F40003600F9004200F900004006004200F800B7
:100F50003600F800801F7800200020000C000900F7
:100F6000B01F78008900A900A00120000C00090032
:100F70004F1078004F0078003600F9004200F90069
:100F8000004006004200F8003600F800801F78009C
:100F9000200020000C000900B01F78008520A90067
:100FA000A00120000C0009004F1078004F007800CD
:100FB0003600F9004200F900004006008540A90013
:100FC0004200F8003600F800801F78002000200062
:100FD0000C000900B01F7800A00120000C000900DF
:100FE0004F1078004F0078003600F9004200F900F9
:100FF000004006004200F8003600F800801F78002C
:10100000200020000C000900B01F78008560A900B6
:10101000A00120000C0009004F1078004F0078005C
:101020003600F9004200F900004006004200F800D6
:101030003600F800801F7800200020000C00090016
:10104000B01F78008060A9008060A900A001200086
:101050000C0009004F1078004F0078003600F900AE
:101060004200F900004006004200F8003600F80097
:10107000801F7800200020000C000900B01F7800BD
:1010800000000000A00120000C0009004F107800B3
:101090004F0078003600F9004200F90000400600D9
:1010A0004200F80042E0EF00E6030200000000000A
:1010B0004200F9006A29EF006829EF00C0A0A800EB
:1010C000C4A0A9001021EF000CA1EF0004012A0028
:1010D000840888001421EF001AA1EF000401280001
:1010E000F40888001401F8000601F9000CA1EF00D3
:1010F0000401280084088800E228EF00D4052000BD
:1011000024478800E668EF00E708A9000000060011
:10111000851F7800861F7800000020007E09B4003B
:101120008002780085C9BF000000FB00800A7800BB
:10113000200020007E09B4008002780084C9BF002E
:101140000000FB00800A7800400020007E09B40007
:101150008002780083C9BF000000FB00800A78008D
:10116000600020007E09B4008002780082C9BF00C0
:101170000000FB00800A7800800020007E09B40097
:101180008002780081C9BF000000FB00800A78005F
:10119000A00020007E09B40080027800064C800088
:1011A0000603FB0044062000840A43004F03780036
:1011B000CF02780000000600851F7800C5002000DF
:1011C00003000900B51F78000202B80003F0A60072
:1011D000020037000383B900010037000303B800A1
:1011E0004200A9008502430060844B0001F0A60084
:1011F00002003700028BB90001003700020BB80073
:1012000085024B0008844B000980B000038BB900B5
:1012100008044B0087834C008701780008017800A0
:1012200085007800040078002501200003000900F3
:10123000CF127800CF02780000000600851F7800EA
:10124000861F7800871F7800881F7800A000200084
:101250009C09B400900278006404200004805200CD
:10126000D416200000A0B900800278008000200081
:101270009C09B40010037800610353000602780053
:101280006420B800C48E20000400400000027800F2
:1012900003002000B4197800B419780085024000DA
:1012A000E080480001037800600020009C09B40041
:1012B00090037800618053008000EB0000F0A700ED
:1012C0008080EB0005004000F04C8800068048005C
:1012D000004D8800A00020009C09B4009002780016
:1012E0005504B100050278004300200011000900F8
:1012F0000302D8008000EB0000F0A7008080EB0024
:101300009E29B40001007800A089B400004D880037
:10131000800020009C09B400900278006228E1005F
:101320000D003400A00020009C09B4009002780059
:101330000502780043002000110009000302D800D4
:10134000810278000500E00003003A009E29EC00CD
:101350004220AF00A029EC00000020009C09B4004E
:1013600090027800200020009C09B4000002780060
:1013700014007800C403200000A0B90085024000DA
:10138000400020009C09B400100378008003EB00AB
:1013900006F0A7008083EB004200F80042E0EF0077
:1013A0008001200001002000F24C8000034D8000ED
:1013B0000A050200000000004200F900060040009B
:1013C00087804800000178008101780000E120005A
:1013D00001002000DC0802000000000005004000C1
:1013E000104D8800E0804800214D8800104D80009D
:1013F000214D80004F047800CF0378004F03780020
:10140000CF027800000006004C29EF003C09F800EC
:101410004E09F9003E09F8005009F9002E09F800BC
:101420005209F9003009F8005409F9003209F800AE
:101430005609F900C4942000E44C88001E090200FB
:1014400000000000F0428800014388000000060010
:101450000421EF00217420002400200062042000F9
:10146000730520008248780083487800844878001B
:1014700002A1EF00CDC2A80024002C00240888009F
:1014800004002800140888008C60A800B0C0B300D5
:1014900080E9B70090C0B30081E9B700D0C1B300C4
:1014A00082E9B70020C1B30083E9B7008469EF0087
:1014B0008569EF0084922000F44B880088080200C0
:1014C00000000000B0C0B30080E9B70090C0B300D6
:1014D00081E9B700D0C1B30082E9B70020C1B300F1
:1014E00083E9B700E0C1B30084E9B7008569EF0084
:1014F000A4932000F44B880088080200000000003C
:10150000B0C0B30080E9B70090C0B30081E9B70074
:10151000D0C1B30082E9B70020C1B30083E9B700AE
:10152000E0C1B30084E9B7008569EF00C4942000EE
:10153000F44B88008808020000000000849220001C
:10154000E44C88001E0902000000000030438800BF
:1015500041438800A4932000E44C88001E09020047
:10156000000000001043880021438800040A0200A4
:101570000000000010C0B30076E8B7006A28EF0052
:101580006C28EF006E28EF007028EF007228EF0043
:101590007428EF0000000600046020001409880091
:1015A000040120002409880028A1EF002621EF0073
:1015B0009100A800000006000408200024158800FF
:1015C000040E280004158800F4F32F004415880049
:1015D000A222EF00000006000000E0004220AF0061
:1015E00006003700DB33090000000000FF3F090060
:1015F000000000000000E900F7FF370000000600CF
:10160000BA29EF00D44D80006820E10011003D00B0
:10161000D862A900DC62A9004200A900B8E9D6009E
:1016200002003100DC82A90001003700DC82A80042
:10163000D882A9003E01090000000000D862A9007C
:10164000DC62A8003E01090000000000BA29EC009D
:10165000ECFF370000000600D8A2A900DCA2A90018
:101660009E00090000000000B4C9BF00B8E9B7003F
:10167000000B020000000000B5C9BF00B8E9B700C8
:10168000000B0200000000005602090000000000EC
:10169000D8A2A900DCA2A80000000600851F7800DF
:1016A000AC29EF00644D80007020E1000C003D008B
:1016B000048C2000634D80008482410000C2B3008E
:1016C000804A7800048D2000634D800084824100B0
:1016D00000C2B300804A7800AC29EC00F1FF37006B
:1016E000CF02780000000600C702A900CB02A900C3
:1016F000401F2000EC0A0200000000008588A800BE
:10170000D8A2A900DCA2A800D862A900DC62A800C7
:10171000D882A900DC82A8001B000900000000009C
:1017200080CFB300B4E9B700B0C2B300B5E9B700E9
:101730002C0B0200000000001B000900000000004C
:1017400080CFB300B4E9B70010C0B300B5E9B7006B
:101750002C0B02000000000080022000EC0A0200B6
:101760000000000080CFB300B4E9B70020C0B30090
:10177000B5E9B7002C0B0200000000001B000900B7
:101780000000000080CFB300B4E9B70060C0B30030
:10179000B5E9B7002C0B0200000000001B00090097
:1017A0000000000080CFB300B4E9B700C0C0B300B0
:1017B000B5E9B7002C0B0200000000001B00090077
:1017C0000000000080CFB300B4E9B70000C8B30048
:1017D000B5E9B7002C0B0200000000001B00090057
:1017E0000000000080CFB300B4E9B70020C0B30010
:1017F000B5E9B7002C0B0200000000007E29EF00C5
:10180000F44B8000F30F20000418E1000A003400BC
:10181000A0CFB300B4E9B70000C2B300B5E9B70088
:101820002C0B0200000000009200090000000000E4
:101830007E29EC00F2FF37004E0B02000000000092
:10184000000006000A21EF00840F210074088800C0
:101850000403280094088800C041A900C061A900C1
:1018600044892300240E8800A4C42100C40E8800EB
:10187000C821A900C1E1A80000000600851F78006A
:10188000861F7800E10820000000E000120032000E
:1018900000F0A700040037004200A9000080D20039
:1018A0008100E900FAFF37000180FD004200A90035
:1018B0008180D30000F0A1000080FD00814068001D
:1018C0000040B20007003700014078000170A0001E
:1018D0000140B200030037000000EB008000EB0085
:1018E000000037004F037800CF02780000000600A8
:1018F000851F7800C500200004000900B51F78008E
:101900008004EB0083846800010378008002780083
:1019100003047800820378008180D2000180FD00FA
:101920008180FB000100E0004E0032008381D20084
:101930000380FD008381FB000300E00049003200CA
:101940000000EB0003C0500003003900F047B00076
:1019500044003100030037001048B1004100390055
:101960004000320085007800060178000270A00077
:10197000F20FB200F80FB2000870A0009A01200028
:101980008001EB000002EB00878050000801590045
:10199000020033000400310004003A008780400058
:1019A00008014900010037000400A0000A05E90011
:1019B000070032004200A9008180D2000281D200DB
:1019C0004200A9000482D2008381D200EEFF3700DA
:1019D0000005EB000380A700010037000600370078
:1019E0004200A9008381D3000370A1000482D300C8
:1019F0000A85D200020037000000E9001900320019
:101A00000AF0A700050039008180D2000281D200CF
:101A10008780500008015900090039000402E800DD
:101A200007003A008301E80005003A000000E800E2
:101A30000C003200020037000000E900090032000B
:101A40000080FD008080D30001F0A00009F0A60016
:101A500001F0A1000370A10081C0690004007800BA
:101A600003003700000020000100200000003700C4
:101A70004501200004000900CF127800CF02780051
:101A800000000600851F7800861F7800E10820000E
:101A90000600A10000F0A600030037000600A00029
:101AA0000000EA00000037000000E00014003200EF
:101AB00000F0A700040037004200A9000080D20017
:101AC0008100E900FAFF37000180FD004200A90013
:101AD0008180D30000F0A1000080FD0081406800FB
:101AE0000040B2000600A70001F0A0000700370088
:101AF000014078000170A0000140B20003003700EF
:101B00000000EB008000EB00000037004F0378007E
:101B1000CF02780000000600851F7800861F78003D
:101B2000871F78000382680004F0A60006003700D3
:101B30004200A9004220A90001F0A60026003700BB
:101B40004200A800240037000102780080027800DB
:101B500003037800820378008180D2000180FD00B9
:101B60008381D2000380FD0081C051000500320056
:101B700004F0A600180037001000200042E0B60074
:101B80001500370084407800864178000170A1007C
:101B90000370A10081C051000500320004F0A600CE
:101BA0000D0037001000200042E0B6000A003700A8
:101BB000858053000500320004F0A60006003700BF
:101BC0001000200042E0B600030037004200A900E8
:101BD0000100370000003700CF0378004F03780082
:101BE000CF02780000000600000178008101780033
:101BF000014078000080FD0000F0A0008180D2004C
:101C00000180FD008180FB00E4082000814052003B
:101C1000060032000000E000040032004200A9008B
:101C20000080D3008100E900FAFF3A0003F0A6002B
:101C3000020037000000EA00000037000000060044
:101C4000851F7800C500200003000900B51F78003B
:101C50008004EB00080028004300AF0083016C0003
:101C6000010578008A856900010378008303780004
:101C7000030678004220A9004200A9000683D20092
:101C80000680FD00F60FB2000600E000A100320061
:101C90004220A9004200A9008783D2000780FD00EE
:101CA000F70FB2000700E0009F0032004220A900B9
:101CB0004200A9000638E1009C003200A300330076
:101CC0000900A1000910A000068453000703780052
:101CD000F10FB2000170A000F30FB2000370A0007A
:101CE000870220000838E100110033004220A900DB
:101CF0004200A9008180D3000080D3000804E900DD
:101D0000FAFF3A000D003700870220000838E10092
:101D1000090033004220A9004200A9008381D300BA
:101D20000281D3000804E900FAFF3A000F003700EF
:101D30000200780083007800430037000BF0A60013
:101D4000110037000940A7008C0578000000EA0068
:101D50000200320081C0EA00010037008100EA0081
:101D60000940A7002B003700070037000BF0A60042
:101D7000050037000201EA000200320083C1EA00D8
:101D8000010037008301EA00F50FB2004220A900EC
:101D90004200A9000200400083C048004200AF009A
:101DA0000930A0000900A700090037000910A700AA
:101DB000010037000B0037000BF0A70015003700BB
:101DC0000930A700290037000960A0001E00370075
:101DD0000BF0A7000F0037000930A70023003700E1
:101DE000190037000920A1000BF0A70004003700FC
:101DF0008A0578000930A7001C003700360037003C
:101E00000940A00001C8B2000170A700CDFF370053
:101E10008A057800F10FB200810370000A003200D9
:101E20000170A700080037004220A9004200A90065
:101E30000080D2008180D2000603E9004220AF007A
:101E400031003700F6FF37000900A7008A05780047
:101E50000910A7008C0578000950A6001A00370069
:101E60000AF0A7000080A0001B0037004200A80075
:101E700081C0D3000080D3004200AF000950A00011
:101E80000603E800200032000950A60008003700D1
:101E90000000E80006003A008140E80004003A0033
:101EA00081C0D3000080D3000603E8001600320092
:101EB0000900A7008A0578000910A7008C057800A2
:101EC0004220AF00100037000960A7008A057800A3
:101ED0000970A7008C057800010170002300320012
:101EE0000170A1000680FD004220A9004200A90067
:101EF0000683D30081006B0001F0A0000BF0A60068
:101F000001F0A100190037000000200001002000AE
:101F1000160037000AF0A70083016C000200780069
:101F2000830078001100370010003700F30FB20073
:101F30000370A000F10FB2000170A0000BF0A70029
:101F40000370A1000920A00088FF37000704530098
:101F5000F10FB2000170A000F30FB2000370A000F7
:101F60000910A1000900A00067FF3700250120002B
:101F700003000900CF127800CF02780000000600AD
:101F8000851F7800C500200004000900B51F7800F7
:101F90000002780081027800830378000203780051
:101FA0004200A9004220A9008180D2000180FD00EA
:101FB000F10FB2000100E000480032004200A90029
:101FC0004220A9008381D2000380FD00F30FB200FC
:101FD0000300E000410032000080FB0001C041002E
:101FE00004003100F007B1003C0032003B00390032
:101FF000020037001048B0003800310007856A0041
:102000004200A9004220A900F50FB2000570A0000F
:102010004200A900F70FB2000770A0000621B80027
:10202000062CB80083014C0089007800043CB800FD
:1020300083014C0081804C00072CB80081004C00CB
:102040000000E8000100E0004220AF00010037007E
:10205000030037000300E0004220AF000500370016
:1020600001F0A700030037008381D2008180D200F5
:102070000000E900010178004200A9000370A600F9
:102080000900370007F02F00878161000310B000BE
:10209000600149000200E00003003A000300E00094
:1020A00001003A000000E8000080FD004200A900A5
:1020B0004220A9008080D3000AF0A70001F0A00010
:1020C00002F0A1000280FD00814069000380FD0054
:1020D0000341780002007800030037000000200070
:1020E0000100200000003700450120000400090025
:1020F000CF127800CF02780000000600851F78001C
:10210000861F7800F709A900F209F800F809F9001C
:10211000F409F800FA09F900904F8000A14F8000FF
:1021200002002000030020008C0D020000000000CF
:1021300002003900F709A800FBE9AA00C04F80009F
:10214000D14F800002002000037024008C0D02009B
:10215000000000000100310009003A00C04F80007B
:10216000D14F8000F40D0200000000003E0C020080
:1021700000000000E04F8800F14F88004900370060
:10218000C04F8000D14F80000268290083B1240035
:102190008C0D0200000000003E003900C04F80009E
:1021A000D14F80000200200003702400780C020050
:1021B00000000000F40D0200000000000050880044
:1021C000C04F8000D14F8000020020000370240027
:1021D000780C020000000000800278000103780003
:1021E000005080003E0C0200000000004300A800E8
:1021F00000017800810178000500780086007800F1
:10220000200E02000000000000017800810178002B
:102210000000200001702400C00F02000000000038
:10222000C04F8800D14F8800005080003E0C020053
:10223000000000000001780081017800000020000B
:1022400001702400C00F020000000000E04F880071
:10225000F14F8800C04F8000D14F8000F40D020084
:10226000000000003E0C0200000000004300A90036
:102270000001780081017800E04F8000F14F80007C
:10228000200E020000000000E04F8800F14F88009F
:1022900004003700F809F800FC09F900FA09F80011
:1022A000FE09F900C04F8000D14F8000F40D0200FC
:1022B000000000003E0C0200000000004300A800E7
:1022C0000001780081017800C04F8000D14F80006C
:1022D000200E020000000000C04F8800D14F88008F
:1022E000F709AE0001003700FFE9AA00C04F8000E7
:1022F000D14F800002002000030020008C0D02005E
:10230000000000001B003200F709AE000B00370090
:10231000F649E20009003A004300A800E04F8000BF
:10232000F14F80000200200003F82300200E02007D
:1023300000000000E04F8800F14F8800F709AF006F
:102340000C003700B44F80006124E10009003A001E
:102350004300A900E04F8000F14F80000200200000
:1023600003F82300200E020000000000E04F880068
:10237000F14F8800904F8000A14F800002002000A4
:10238000030020008C0D02000000000002003A0053
:10239000FC29EF00FE29EF00E04F8000F14F8000A4
:1023A0004F037800CF0278000000060010C0B30091
:1023B000F6E9B700EA09F800F209F900EC09F800BB
:1023C000F409F9007E100200000000000000BE00C9
:1023D00000000600F669EF00EA09F800F209F900CA
:1023E000EC09F800F409F9007E100200000000007A
:1023F0000000BE0000000600851F7800861F7800E0
:10240000B04E8000C14E800002002000030020007A
:102410008C0D0200000000003A003200904E800057
:10242000A14E8000B24E8000C34E8000780C0200A6
:1024300000000000800278000103780005007800A9
:102440008600780002002000030020008C0D0200AE
:10245000000000000D003900904E8000A14E800069
:10246000B24E8000C34E8000780C020000000000D5
:102470008002780001037800554F8800664F88007D
:10248000D6110200000000000C003700904E8000C2
:10249000A14E8000B24E8000C34E8000780C020036
:1024A000000000008002780001037800554F88008A
:1024B000664F8800EA11020000000000D04E88003C
:1024C000E14E8800D04E8000E14E8000B24E800088
:1024D000C34E8000C00F0200000000004300A800AF
:1024E0000001780081017800904E8000A14E8000AC
:1024F000200E0200000000000000BE0001003700B6
:10250000000037004F037800CF027800000006007B
:10251000851F7800861F780030002000AC09B400C9
:10252000904278000B60EF0020002000AC09B4005E
:1025300000027800144078000160EF000028B80025
:10254000804D8800804D80003E0C0200000000009D
:10255000800278000103780005007800860078008A
:1025600002102000E3772400780C02000000000035
:10257000904D8800A14D880000002000AC09B400F7
:102580000002780014007800420D020000000000F4
:10259000800278000103780005007800860078004A
:1025A0000200200003272400780C02000000000035
:1025B000B04D8800C14D8800B609F800D209F90075
:1025C000B809F800D409F900D629EF000400240066
:1025D000C44E8800FC110200000000008002780058
:1025E000010378004300A800050078008600780009
:1025F0000200200003F82300200E0200000000006B
:1026000080027800010378000500780086007800D9
:1026100001F0A1004300A8000001780081017800CA
:102620000000200001F82300200E0200000000003E
:102630000001780081017800904D8000A14D80005C
:10264000C00F020000000000D04D8800E14D88005E
:10265000BE29EF00C029EF00C229EF00C429EF0016
:10266000C629EF00C829EF0000002000AC09B40023
:1026700090027800C40320000520E1000900340026
:10268000B209F800BE09F900B409F800C009F90060
:10269000BA09F800C209F900BC09F800C409F90038
:1026A0004A00370000002000AC09B4009002780016
:1026B000840720000520E10009003400BA09F80071
:1026C000BE09F900BC09F800C009F900B209F80018
:1026D000C209F900B409F800C409F9003B00370049
:1026E00000002000AC09B40090027800440B2000E8
:1026F0000520E10009003400B209F800C209F90020
:10270000B409F800C409F900BA09F800C609F900CB
:10271000BC09F800C809F9002C00370000002000AF
:10272000AC09B40090027800040F20000520E100FD
:1027300009003400BA09F800C209F900BC09F80020
:10274000C409F900B209F800C609F900B409F80093
:10275000C809F9001D00370000002000AC09B400D2
:1027600090027800C41220000520E1000900340026
:10277000BA09F800BE09F900BC09F800C009F9005F
:10278000B209F800C609F900B409F800C809F9004F
:102790000E00370000002000AC09B4009002780061
:1027A000841620000520E10008003500B209F80079
:1027B000BE09F900B409F800C009F900BA09F80027
:1027C000C609F900BC09F800C809F900300020006A
:1027D000AC09B40000027800144078000160EF00FA
:1027E0003E0C020000000000800278000103780027
:1027F000050078008600780002002000F3372400EE
:10280000780C0200000000008002780001037800CC
:102810004300A8000500780086007800924D8000F3
:10282000A34D8000200E020000000000504E8800E2
:10283000614E880000002000AE09B40080027800DC
:102840004300A900F04D8000014E8000524E8000F0
:10285000634E8000200E020000000000000178009E
:102860008101780000002000F1372400C00F020031
:1028700000000000F40D020000000000804A780013
:1028800010002000AE09B400800278004300A900C7
:10289000104E8000214E8000524E8000634E80001A
:1028A000200E020000000000000178008101780085
:1028B00000002000F1372400C00F020000000000DB
:1028C000F40D020000000000804A78002000200083
:1028D000AE09B400800278004300A900304E8000A9
:1028E000414E8000524E8000634E8000200E020058
:1028F0000000000000017800810178000000200045
:10290000F1372400C00F020000000000F40D0200A7
:1029100000000000804A78004F037800CF02780062
:1029200000000600851F780030002000AC09B400CC
:1029300080027800954AE80000002000AC09B4004D
:102940001004E0000C003A0000002000AC09B400C4
:102950009042780030002000AC09B40000027800FA
:1029600014407800002CE10003003100C6E2A90009
:10297000CAE2A90002003700C6E2A900CAE2A80024
:1029800010002000AC09B4001004E0000C003A0074
:1029900010002000AC09B400904278003000200004
:1029A000AC09B4000002780014407800002CE1006B
:1029B00003003100C622A900CA22A9000200370084
:1029C000C622A900CA22A80020002000AC09B40039
:1029D0001004E0000C003A0020002000AC09B40014
:1029E0009042780030002000AC09B400000278006A
:1029F00014407800002CE10003003100C602A90059
:102A0000CA02A90002003700C602A900CA02A80033
:102A1000CF027800000006000400280004098800A6
:102A200034792000E4088800B828EF00BAE8EF0005
:102A3000F0CFB300BBE8B700B468EF00B568EF00B3
:102A4000B668EF00B768EF00848B2000644D880003
:102A5000448B2000744D88008812020000000000A2
:102A6000448B2000644D8800921402000000000096
:102A70008EC0A800000006008568A9008E09AF007E
:102A80008568A8008E49E20004003200AF68EF00BC
:102A90000A21EF008CE0A800020037008CE0A900BA
:102AA000C821A90000000600851F7800861F780055
:102AB00000027800810278000000EB008000EB004B
:102AC00085017200110032000001EB00610B200053
:102AD0000270A700070037004200A9000482D2005C
:102AE0008582D2000080D2000281D2008100E900FC
:102AF000F7FF3A000180FD004200A9008180D30069
:102B000001F0A1000270A100814069004F0378002C
:102B1000CF02780000000600851F7800861F78002D
:102B2000871F7800881F7800C0032A00C1F72300A0
:102B3000D24C8000E34C8000C00F02000000000077
:102B40008002780001037800050078008600780094
:102B5000D24C8000E34C8000C00F02000000000057
:102B60008002780001037800050078008600780074
:102B7000D24C8000E34C8000C00F02000000000037
:102B80008002780001037800050078008600780054
:102B9000D24C8000E34C8000C00F02000000000017
:102BA000800278000103780080C629000118240003
:102BB000D24C8000E34C8000C00F020000000000F7
:102BC000800378000104780007007800880078000E
:102BD000D24C8000E34C8000C00F020000000000D7
:102BE00080037800010478000700780088007800EE
:102BF000D24C8000E34C8000C00F020000000000B7
:102C00004300A900000178008101780005007800E8
:102C100086007800200E020000000000800278008C
:102C20000103780070A92400E11C2400D24C80002C
:102C3000E34C8000C00F0200000000008003780019
:102C4000010478000700780088007800D24C8000EA
:102C5000E34C8000C00F0200000000004300A80009
:102C60000001780081017800050078008600780076
:102C7000200E0200000000008002780001037800AE
:102C8000204F2200D1172400D24C8000E34C80005A
:102C9000C00F0200000000004300A90000017800FE
:102CA000810178000500780086007800200E02007F
:102CB0000000000080027800010378004300A900B2
:102CC000050078008600780092E22A0023F22300B3
:102CD000200E0200000000000000BE004F0478003B
:102CE000CF0378004F037800CF0278000000060081
:102CF000851F7800861F7800054780008502FB004D
:102D00000003EB0005F0A7000083EB004200F80091
:102D100042E0EF000500780086007800C203200042
:102D2000030020000A050200000000004200F90034
:102D3000F442800000005200804B88000443800071
:102D400001005A00904B8800904B80004443800063
:102D50000020E1007C00390004003E00804B800030
:102D6000344380000020E1007700390040438000B8
:102D7000044380000020E1007300390004003E009D
:102D800030438000F44280000020E1006E003900F2
:102D900034438000834B8000030052004443800092
:102DA000934B800083005A0054150200000000007D
:102DB000A04B8800B14B8800A04B8000B14B800035
:102DC0000200200003272400780C0200000000000D
:102DD000A04B8800B14B8800E0C8BF000000FB009A
:102DE000420D02000000000000017800810178001F
:102DF000A04B8000B14B8000780C02000000000066
:102E0000A04B8800B14B8800BFC8BF000000FB008A
:102E1000420D0200000000000001780081017800EE
:102E2000A04B8000B14B8000C00F020000000000EA
:102E3000A04B8800B14B8800A04B8000B14B8000B4
:102E400002002000832C2400780C02000000000007
:102E5000A04B8800B14B88007409F8009A09F9006A
:102E60007609F8009C09F9008C15020000000000AA
:102E7000604B8800714B88004300A8005055250026
:102E800051102400624B8000734B8000200E020022
:102E900000000000604B8800714B880034438000C4
:102EA000834B80008302520044438000934B800098
:102EB00003035A006030E1002300390002003E00A5
:102EC0006A28E10020003900604B8000714B8000CF
:102ED00002002000030020008C0D02000000000012
:102EE0000100310005003A00841A260014478800CA
:102EF00010C0B300E6E8B7001300370020552500E6
:102F000051102400624B8000734B80008C0D020036
:102F10000000000003003900A400200014478800CE
:102F200009003700604B8000714B800002002C00CC
:102F300073562400C00F020000000000F40D0200D0
:102F400000000000104788004F037800CF0278008F
:102F500000000600851F7800861F7800BFC8BF00EC
:102F60000000FB00420D020000000000800278001B
:102F7000010378000500780086007800724C80001C
:102F8000834C8000C00F0200000000008002780027
:102F90000103780005007800860078000200200018
:102FA000832C2400780C020000000000904C880064
:102FB000A14C88009209F8009A09F9009409F800D8
:102FC0009C09F9008C15020000000000604B88008D
:102FD000714B88004300A800505525005110240073
:102FE000624B8000734B8000200E02000000000046
:102FF000604B8800714B8800604B8000714B8000F3
:1030000002002C0073562400C00F020000000000D4
:10301000F40D020000000000104788004F03780004
:10302000CF027800000006003A29EF002E09F800D0
:103030004009F9003009F8004209F9003209F800A6
:103040004409F900A4932000E44C88001E09020002
:1030500000000000104388002143880000000600A3
:10306000851F78009609A9009769EF0014180200DF
:10307000000000009609AF002F003700B44C80001C
:103080004822DE006724E1002B003D0097C9BF0005
:103090000000FB008000EB0000F0A7008080EB0048
:1030A0000218250013002000DC08020000000000C8
:1030B0001443800004004000C04C8800244380007A
:1030C00004804800D04C88004200F80042E0EF0045
:1030D0009809F800500AF9009A09F800520AF90014
:1030E000A4932000A45288003A05020000000000CA
:1030F0004200F90004922000334A8000048041001D
:10310000104278006124E10009003A009609A80005
:103110009809F8006208F9009A09F8006408F900B3
:103120006208F8005E08F9006408F8006008F90019
:103130009769EC00CFFF3700CF027800000006004F
:103140008E29EF009029EF00AA170200000000006E
:1031500050080200000000008E69EF003C150200DC
:1031600000000000301802000000000010C0B30092
:1031700076E8B70000000600851F7800861F7800FB
:1031800076C8BF000160EF001080B2000B00320073
:103190003080B200320032001080B2006F00320086
:1031A0007080B200940032001080B200E70032005C
:1031B0003080B20026013200500137000547800000
:1031C0008502FB000003EB0005F0A7000083EB0085
:1031D0004200F80042E0EF00050078008600780029
:1031E000C2032000030020000A05020000000000C6
:1031F0004200F9001443800000005200804B880018
:103200002443800001005A00904B8800904B8000BE
:10321000444380000020E1001000390004003E001B
:10322000804B8000344380000020E1000B00390017
:1032300040438000244380000020E1000700390063
:1032400004003E0030438000144380000020E10071
:103250000200360020C0B30076E8B700280137002E
:103260007816020000000000054780008502FB0080
:103270000003EB0005F0A7000083EB004200F8001C
:1032800042E0EF000500780086007800C2032000CD
:10329000030020000A050200000000004200F900BF
:1032A0001443800000005200804B880024438000BB
:1032B00001005A00904B8800304380006208E30010
:1032C00011003A00404380006408E3000E003A0019
:1032D0007869EF0010C0B3008EE9B7003C1502001A
:1032E000000000006208F8005E08F9006408F800B9
:1032F0006008F9006629A9006649A90030C0B3003A
:1033000076E8B7001400370040438000944B8000FB
:103310000020E1000E003E00040039003043800030
:10332000844B80000020E10009003E002043800023
:10333000444380000020E1000700390004003E0003
:1033400010438000344380000020E100020036007A
:10335000A018020000000000E90037006629AF0055
:103360000D003700C4032000F342800004804100B8
:103370000443800060024A008400780044438000D7
:103380000120E1001B00390003003E0034438000AF
:103390000020E100170039006629A9008E69EF00BE
:1033A0003C15020000000000E1C8BF000160EF0012
:1033B000010020004200F80042E0EF000001780028
:1033C00081017800C0032000010020000A050200EE
:1033D000000000004200F9005E28B40001007800FF
:1033E0006088B400004388007869EC0040C0B300F6
:1033F00076E8B700C2003700054780008502FB0071
:103400000003EB0005F0A7000083EB004200F8008A
:1034100042E0EF000500780086007800C20320003B
:10342000030020000A050200000000004200F9002D
:10343000F442800000005200804B8800044380006A
:1034400001005A00904B880085C8AE000800370084
:103450008E29EF0004F02300844C8800AA17020094
:103460000000000060C0B30076E8B7003600370007
:10347000904B8000444380000020E100110039009F
:1034800004003E00804B8000344380000020E100B7
:103490000C00360040438000044380000020E1001F
:1034A0000800390004003E0030438000F4428000F0
:1034B0000020E1000300360050C0B30076E8B700FA
:1034C0002100370040438000944B80000020E10041
:1034D00013003E000400390030438000844B80001C
:1034E0000020E1000E003E000043800044438000C5
:1034F0000020E1000A003E0004003900F042800094
:10350000344380000020E10005003E00C44B8000F1
:103510006324E100020032006649AE000300370078
:10352000A018020000000000070037006649AE0046
:10353000050037006649A9007228EF007428EF00E3
:10354000A0180200000000006D0037000547800051
:103550008502FB000003EB0005F0A7000083EB00F1
:103560004200F80042E0EF00050078008600780095
:10357000C2032000030020000A0502000000000032
:103580004200F900F442800000005200804B8800A5
:103590000443800001005A00904B88007816020016
:1035A00000000000304380005E08E3000C003A0099
:1035B000404380006008E30009003A0010C0B300F7
:1035C0008EE9B7003C150200000000006629A90042
:1035D0006649A90030C0B30076E8B7001B00370089
:1035E00040438000944B80000020E10010003E002A
:1035F0000400390030438000844B80000020E1004B
:103600000B003E0000438000444380000020E100A6
:1036100007003E0004003900F0428000344380007F
:103620000020E10002003E006649AE0007003700BE
:103630006649AE00030037006649A9007228EF0012
:103640007428EF00A0180200000000002C003700D2
:10365000304380005E08E3000C003A0040438000E5
:103660006008E30009003A0010C0B3008EE9B7001B
:103670003C150200000000006629A9006649A90067
:1036800030C0B30076E8B7001B003700404380002D
:10369000944B80000020E10010003E00040039003F
:1036A00030438000844B80000020E1000B003E008E
:1036B00000438000444380000020E10007003E00FA
:1036C00004003900F0428000344380000020E10013
:1036D00002003E006649AE00070037006649AE00B2
:1036E000030037006649A9007228EF007428EF0034
:1036F000A0180200000000000100370000003700A1
:103700004F037800CF02780000000600851F780084
:103710008669EF00A0CAB3001922AF00FEFF370090
:103720001AE2B7001B62EF0085C9BF001922AF0083
:10373000FEFF37001AE2B7001B62EF0084C9BF002A
:103740001922AF00FEFF37001AE2B7001B62EF003C
:103750008669EF0086C9BF00244C80000024E10088
:103760000C00340086C9BF000000FB00144C800030
:103770000400400090427800054078001922AF0014
:10378000FEFF37001AE2B7001B62EF008669EC000B
:10379000F0FF370050C5B3001922AF00FEFF37001D
:1037A0001AE2B7001B62EF00CF02780000000600AB
:1037B000E0852000104C8800A0C1B30084E9B70068
:1037C00030C0B30085E9B700861B0200000000008E
:1037D0000000060066E9A90066C9AF0066E9A80016
:1037E000000006008588A900C702A900CB02A80036
:1037F000401F2000EC0A020000000000000006004C
:103800006400200034158800940B090000000000BB
:10381000A002A900A022A800A002AE00FEFF37006F
:10382000001480004600DD00104B88008588AE0043
:1038300016003700144B8000034020000418E100FC
:10384000120036008508AF0010003700F44A8000EF
:103850006A02420004007800044B800060024A00C3
:1038600084007800444380000120E1000700390013
:1038700003003E00344380000020E10003003900D3
:10388000F21B020000000000150037008588AF0021
:1038900013003700144B8000038020000418E1005F
:1038A0000D003900F44A80006A02420004007800EA
:1038B000044B800060024A0084007800444380008A
:1038C0000120E10006003E0003003900344380007F
:1038D0000020E10002003100740B02000000000033
:1038E00000000600811F7800E14B800080587800BE
:1038F0008048EB00CF0078007C29EC000000060037
:10390000851F7800C500200003000900B51F78005E
:10391000800378008404780004F0A1000400E00033
:1039200006003A0009F0A700020037000500200059
:1039300010003700050020000E003700E64252005C
:103940000B0039000003200009F0A600000220004F
:10395000801F78004F007800721C020000000000F9
:103960008502E900FAFF3B00550020000100370006
:10397000840278006400200005E0A00009F0A700A0
:1039800005F0A00008712200110009008883D8000A
:10399000FE1C02000000000081037800883E200029
:1039A000110009008883D800FE1C020000000000FE
:1039B0008103780048062000110009008883D800A0
:1039C000FE1C02000000000081037800A800200017
:1039D000110009008883D800FE1C020000000000CE
:1039E0000003200000C04000801F78004F007800D6
:1039F000721C0200000000001A00370006032000BD
:103A00000000E0000E003A0005E0A6000D003700BF
:103A10000402E9000524E100020032004200AF0088
:103A2000000006000000E00005003A0005E0A600E6
:103A30000400370005F0A600060220000100370050
:103A400005E0A10000404300811F7800801F78003E
:103A50004F007800721C020000000000CF007800C8
:103A6000000006002501200003000900CF127800A5
:103A7000CF02780000000600D04B80000080B2002A
:103A8000030032001080B20004003200060037004C
:103A9000E0C1B300CFE8B70003003700E0C1B300D6
:103AA000DFE8B7000000370000000600851F78003F
:103AB000AEC9BF00AE69ED000004E0000A003200AC
:103AC000604D800090427800A0CFB300B4E9B70009
:103AD00005407800B5E9B7002C0B0200000000009B
:103AE000AC29EC00F2FF3700CF027800000006009E
:103AF000ADC9BF00AD69ED000004E0000700320071
:103B0000A0CFB300B4E9B700ACC9BF00B5E9B700B6
:103B10002C0B020000000000F5FF3700000006003B
:103B20008588AE001700370080CFB300B4E9B70036
:103B300020C0B300B5E9B7002C0B02000000000064
:103B400000C1B300AEE9B700048C2000644D8800CA
:103B5000561D020000000000AC69EF0080C1B300F8
:103B6000ADE9B700781D02000000000000C1B300FD
:103B7000AEE9B700048D2000644D8800561D020098
:103B800000000000000006004E0B020000000000D4
:103B9000048C2000E44B8800604980002400280049
:103BA000801C020000000000A0C3B300721C0200D1
:103BB000000000005049800024002800801C020002
:103BC00000000000048D2000E44B8800F0498000D4
:103BD00024002800801C020000000000A0C3B300E5
:103BE000721C020000000000E04980002400280050
:103BF000801C0200000000009100200001007800FD
:103C000024010200000000008100E800811F78000C
:103C1000801F78004F007800721C02000000000036
:103C2000CF007800200120000008E600F3FF3700F5
:103C3000D0C9B300DFE8B700901D0200000000000B
:103C400000000600C821A900AC09AF00C821A800E7
:103C5000000006004E0B020000000000048C200053
:103C6000E44B8800010020000100780044010200BC
:103C7000000000008100E800811F7800801F7800AC
:103C80004F007800721C020000000000CF00780096
:103C9000900020000008E600F3FF3700048D2000AC
:103CA000E44B8800F049800024002800801C0200BA
:103CB00000000000A0C3B300721C0200000000005E
:103CC000E049800024002800801C02000000000061
:103CD00091002000010078005C010200000000005B
:103CE0008100E800811F7800801F78004F00780075
:103CF000721C020000000000CF00780010012000BC
:103D00000008E600F3FF3700D0C9B300DFE8B700D2
:103D100085A8AE0005003700F0C4B300C8E8B700BE
:103D2000E0C4B300C9E8B70006003700F0C4B30030
:103D3000C7E8B70060C4B300C8E8B70060C4B30008
:103D4000C9E8B700901D0200000000000000060056
:103D5000851F78004E0B020000000000048C20003C
:103D6000E44B88006049800024002800801C020089
:103D700000000000A0C3B300721C0200000000009D
:103D80005049800024002800801C02000000000030
:103D9000A0C3B300721C0200000000004049800074
:103DA00024002800801C020000000000E100200028
:103DB0000100780000010200000000008100E8001E
:103DC000811F7800801F78004F007800721C02006D
:103DD00000000000CF007800500120000008E6003D
:103DE000F3FF3700C47620009349800084824100AD
:103DF000048D2000E44B88007049800024002800D6
:103E0000801C02000000000000C2B300721C02000F
:103E1000000000008049800024002800801C02006F
:103E20000000000000C2B300721C0200000000008D
:103E30000500780024002800801C0200000000001B
:103E4000D0C9B300DFE8B700901D020000000000F9
:103E5000CF027800000006004E0B020000000000B8
:103E6000048C2000E44B8800010020000100780051
:103E7000E8010200000000008100E800811F7800D6
:103E8000801F78004F007800721C020000000000C4
:103E9000CF007800500020000008E600F3FF370054
:103EA000048D2000E44B8800E1C8BF000160EF00F2
:103EB00024002800801C02000000000041002000B7
:103EC00001007800FC010200000000008100E80011
:103ED000811F7800801F78004F007800721C02005C
:103EE00000000000CF007800700020000008E6000D
:103EF000F3FF3700D0C9B300DFE8B700901D020020
:103F000000000000000006004E0B02000000000050
:103F1000048C2000E44B88000100200001007800A0
:103F200092010200000000008100E800811F78007B
:103F3000801F78004F007800721C02000000000013
:103F4000CF007800A00020000008E600F3FF370053
:103F5000BFC8BF000000FB0034002800801C020026
:103F600000000000048D2000E44B880001002000C8
:103F700001007800AE010200000000008100E800AE
:103F8000811F7800801F78004F007800721C0200AB
:103F900000000000CF007800B00020000008E6001C
:103FA000F3FF3700E0C8BF000000FB00240028003A
:103FB000801C020000000000D0C9B300DFE8B70099
:103FC000901D020000000000000006004E0B0200E1
:103FD00000000000048C2000E44B88000100200059
:103FE0000100780012020200000000008100E800D9
:103FF000811F7800801F78004F007800721C02003B
:1040000000000000CF007800A00020000008E600BB
:10401000F3FF3700C045800034002800801C0200F8
:1040200000000000048D2000E44B88000100200007
:10403000010078002E020200000000008100E8006C
:10404000811F7800801F78004F007800721C0200EA
:1040500000000000CF007800400020000008E600CB
:10406000F3FF3700BAC8BF000160EF00340028003A
:10407000801C02000000000000C2B300721C02009D
:104080000000000060C5B300721C020000000000C8
:1040900000C2B300721C020000000000BBC8BF00D9
:1040A0000160EF0034002800801C020000000000C6
:1040B0008528AE0005003700F0C4B300C6E8B7009D
:1040C000E0C4B300C7E8B70006003700F0C4B3008F
:1040D000C5E8B70060C4B300C6E8B70060C4B30069
:1040E000C7E8B700D0C9B300DFE8B700901D0200F1
:1040F00000000000848B2000644D8800448B200069
:10410000744D88008812020000000000448B2000DB
:10411000644D8800921402000000000000000600B8
:104120004E0B020000000000048C2000E44B8800CD
:1041300001002000010078004C0202000000000095
:104140008100E800811F7800801F78004F00780010
:10415000721C020000000000CF00780070002000F8
:104160000008E600F3FF3700B3C8BF000000FB0003
:1041700034002800801C020000000000048D200094
:10418000E44B880001002000010078006602020074
:10419000000000008100E800811F7800801F780087
:1041A0004F007800721C020000000000CF00780071
:1041B000900020000008E600F3FF3700BEC8BF00F3
:1041C0000000FB0004002000801C02000000000032
:1041D000D0C9B300DFE8B700901D02000000000066
:1041E00000000600851F78002601F8009A09F900F2
:1041F000904C8000901F78002601F9002601F800FD
:104200009C09F9002601F8009E09F9006629AF0013
:10421000290037002601F8009E09F900954C80001E
:10422000F44C800084029800904C8000900278004A
:10423000A44C8000610052000028E10008003A0010
:104240009609F8009E09F9009609F8002601F90080
:10425000954C8000F44C8000840298000C003700DC
:10426000904C800090027800B44C80000520E10062
:1042700007003D009409F8009E09F9009409F80030
:104280002601F900954C8000F44C800084029800CF
:10429000E04C80009E09E30004003200C24C800024
:1042A00003002000B6020200000000009E09F80092
:1042B0009C09F900D5FF37006629A90010C0B3009A
:1042C000ACE9B700221E020000000000200320001D
:1042D000EC0A020000000000AC69EF00221E0200A0
:1042E000000000009A09F8002601F900CF027800CA
:1042F00000000600851F78004E0B02000000000041
:10430000048C2000E44B88000100200001007800AC
:10431000CC010200000000008100E800811F78004D
:10432000801F78004F007800721C0200000000001F
:10433000CF007800D00020000008E600F3FF37002F
:104340009629EF00B44C80006720E10016003D0084
:1043500004922000B34C8000048041001004E0006F
:1043600008003200B44C80006702420084027800EA
:10437000048D20008482420060C9B300804A780026
:1043800007003700B44C80006702420084027800C6
:10439000048D20008482420000C2B300804A78006D
:1043A0009629EC00E7FF3700D0C9B300DFE8B7007B
:1043B000901D020000000000CF02780000000600FF
:1043C000851F78009029EF009209A90098C8BF00C6
:1043D00093E9B70080CFB300B4E9B700F0C0B300F1
:1043E000B5E9B7002C0B0200000000009229A800DC
:1043F0009249A8009209AF00680037002601F80032
:104400008E09F900704C80009009E30002003A0028
:104410009249AE003B0037009249AF001D003700C3
:104420009229A9002361AF009229A8000040EB0067
:104430002361AF000000E800004278000960EF004F
:104440006220B800614050009369B40093C9BF0076
:104450000160EF000160EF00840020000000FB001D
:10446000110009000400D8000140780093E9B7006A
:10447000944C80004822DE006024E10005003D00ED
:10448000944C80004822DE006842420004407800DC
:1044900093E9B7009249A9007A21020000000000C8
:1044A00080CFB300B4E9B70020C0B300B5E9B700CE
:1044B0002C0B0200000000009429EF0093C9BF00FC
:1044C0000000FB0084892000040040000002780006
:1044D000144078000000FB00A44C80000020E100A4
:1044E00008003D0080CFB300B4E9B70040C1B3007D
:1044F000B5E9B7002C0B0200000000009429EC0085
:10450000EEFF37006629AE00210037006629A900BA
:1045100010C0B300ACE9B700221E0200000000008A
:1045200020032000EC0A020000000000AC69EF004C
:10453000221E020000000000944C80004822DE0091
:104540006724E10002003A009209A8000E0037003B
:1045500093C9BF000000FB000492200084024000C9
:1045600093C9BF000000FB0004922000040040003B
:104570001004E000020032000040EB0001003700B0
:1045800010C0B300804A78007A21020000000000C9
:104590008E09F8009009F90096FF370030180200E4
:1045A00000000000CF02780000000600851F7800A0
:1045B0002601F800A009F900D04C80000002780024
:1045C000144078000160EF00300988002601F800EF
:1045D000A209F9002601F800A409F9006629AF0034
:1045E0002E0037002601F800A409F900D54C800000
:1045F000A4C9BF0080429800D04C8000904278004F
:10460000E44C800061405200002CE1000A003A00B6
:104610009DC9BF00A4E9B700A569EF009DC9BF000F
:1046200026E1B7002761EF00D54C8000A4C9BF0088
:10463000804298000F003700D04C80001040780076
:10464000E44C80004822DE000024E1000900310033
:104650009CC9BF00A4E9B700A569EF009CC9BF00D1
:1046600026E1B7002761EF00D54C8000A4C9BF0048
:1046700080429800104D8000A409E300040032003D
:10468000F24C800003002000B6020200000000008F
:10469000A409F800A209F900D0FF37006629A90093
:1046A00010C0B300ACE9B700221E020000000000F9
:1046B00020032000EC0A020000000000AC69EF00BB
:1046C000221E020000000000A009F8002601F900E7
:1046D000CF02780000000600851F78009029EF00C7
:1046E0009209A900A0C8BF0093E9B70080CFB3002A
:1046F000B4E9B700F0C0B300B5E9B7002C0B020075
:10470000000000009229A8009249A8009209AF0079
:10471000690037002601F8008E09F900704C80000E
:104720009009E30002003A009249AE003B003700D6
:104730009249AF001D0037009229A9002361AF0004
:104740009229A8000040EB002361AF000000E800C0
:10475000004278000960EF006220B800614050001C
:104760009369B40093C9BF000160EF000160EF00DE
:10477000240020000000FB00110009000400D80004
:104780000140780093E9B700944C80004822DE0095
:104790006024E10005003D00944C80004822DE00CA
:1047A000624242000440780093E9B7009249A900B0
:1047B0002C1F02000000000080CFB300B4E9B70056
:1047C00020C0B300B5E9B7002C0B020000000000C8
:1047D0009429EF0093C9BF000000FB00048A200069
:1047E0000400400000027800144078000000FB0044
:1047F000A44C80000020E10008003D0080CFB30001
:10480000B4E9B70040C1B300B5E9B7002C0B020012
:10481000000000009429EC00EEFF37006629AE008E
:10482000220037006629A90010C0B300ACE9B70028
:10483000221E02000000000020032000EC0A0200FB
:1048400000000000AC69EF00221E02000000000022
:1048500093C9BF000160EF000080B2000300320086
:104860001080B2000F00320010003700000000007E
:1048700001E0B700C0F221008002780010C0B30050
:104880009CE9B700E0C1B3009DE9B700148E200099
:10489000D44C8800F54C8800D622020000000000AD
:1048A000020037009209A800000037008E09F800C6
:1048B0009009F90095FF3700301802000000000051
:1048C000CF02780000000600851F78008829EF00DD
:1048D0008A09A90092C8BF008BE9B70080CFB30056
:1048E000B4E9B700F0C0B300B5E9B7002C0B020083
:1048F000000000008A29A8008A49A8008A09AF00A0
:104900008D0037002601F8008609F900304C800040
:104910008809E30002003A008A49AE003B003700F4
:104920008A49AF001D0037008A29A9002361AF0022
:104930008A29A8000040EB002361AF000000E800D6
:10494000004278000960EF006220B800614050002A
:104950008B69B4008BC9BF000160EF000160EF00FC
:10496000640020000000FB00110009000400D800D2
:10497000014078008BE9B700544C80004822DE00EB
:104980006024E10005003D00544C80004822DE0018
:1049900066424200044078008BE9B7008A49A900CA
:1049A0002A1E02000000000080CFB300B4E9B70067
:1049B00020C0B300B5E9B7002C0B020000000000D6
:1049C0008C29EF008BC9BF000000FB002489200068
:1049D0000400400000027800144078000000FB0052
:1049E000644C80000020E10008003D0080CFB3004F
:1049F000B4E9B70040C1B300B5E9B7002C0B020021
:104A0000000000008C29EC00EEFF37006629AE00A4
:104A1000460037006629A90010C0B300ACE9B70012
:104A2000221E02000000000020032000EC0A020009
:104A300000000000AC69EF00221E02000000000030
:104A40008BC9BF000160EF000080B2000B00320094
:104A50001080B200110032003080B2001C00320021
:104A60001080B200270032007080B20028003200AF
:104A70001080B200290032002A00370085A8AA0061
:104A800085A8AE0003003700A01802000000000057
:104A9000010037007668EF002200370000000000B8
:104AA00001E0B700A0E22100800278009429EF0025
:104AB00074012000B44C8800E4932000944C8800DA
:104AC000C54C8800F22002000000000015003700ED
:104AD0000000000001E0B700A0E2210080027800A1
:104AE0009429EF00B4032000B44C8800C493200044
:104AF000944C8800C54C8800F220020000000000A1
:104B000008003700E0210200000000000500370027
:104B10006C23020000000000020037008A09A80090
:104B2000000037002A1E0200000000008609F8007D
:104B30008809F90071FF37003018020000000000FA
:104B4000CF027800000006004E0B020000000000BB
:104B5000048C2000E44B8800010020000100780054
:104B60007C010200000000008100E800811F780045
:104B7000801F78004F007800721C020000000000C7
:104B8000CF007800700020000008E600F3FF370037
:104B90008548AE000C003700048D2000E44B8800EF
:104BA00000C2B300721C020000000000F0C4B30099
:104BB000721C020000000000E0C4B300721C02007E
:104BC000000000000B003700048D2000E44B88003B
:104BD000F0C4B300721C02000000000060C4B30007
:104BE000721C02000000000060C4B300721C0200CE
:104BF00000000000D0C9B300DFE8B700901D02003C
:104C00000000000000000600851F78008829EF00E2
:104C10008A09A90090C8BF008BE9B70080CFB30014
:104C2000B4E9B700F0C0B300B5E9B7002C0B02003F
:104C3000000000008A29A8008A49A8008A09AF005C
:104C40005F0037002601F8008609F900304C80002B
:104C50008809E30002003A008A49AE003B003700B1
:104C60008A49AF001D0037008A29A9002361AF00DF
:104C70008A29A8000040EB002361AF000000E80093
:104C8000004278000960EF006220B80061405000E7
:104C90008B69B4008BC9BF000160EF000160EF00B9
:104CA000240020000000FB00110009000400D800CF
:104CB000014078008BE9B700544C80004822DE00A8
:104CC0006024E10005003D00544C80004822DE00D5
:104CD00062424200044078008BE9B7008A49A9008B
:104CE000A42502000000000080CFB300B4E9B700A3
:104CF00020C0B300B5E9B7002C0B02000000000093
:104D00008C29EF008BC9BF000000FB000489200044
:104D10000400400000027800144078000000FB000E
:104D2000644C80000020E10008003D0080CFB3000B
:104D3000B4E9B70040C1B300B5E9B7002C0B0200DD
:104D4000000000008C29EC00EEFF37006629AE0061
:104D5000180037006629A90010C0B300ACE9B700FD
:104D6000221E02000000000020032000EC0A0200C6
:104D700000000000AC69EF00221E020000000000ED
:104D80008BC9BF000160EF000080B2000300320059
:104D90001080B20005003200060037008548AA00E6
:104DA000A425020000000000020037008A09A800C4
:104DB000000037008609F8008809F9009FFF3700D6
:104DC000CF02780000000600851F78008C60A900E3
:104DD0008A09A9008B69EF008A29A8008A49A800DE
:104DE00080CFB300B4E9B700F0C0B300B5E9B700B5
:104DF0002C0B0200000000008A09AF00B60037004B
:104E00002601F8008609F900304C80008809E3008B
:104E100002003A008A49AE003B0037008A49AF00E1
:104E20001D0037008A29A9002361AF008A29A80044
:104E30000040EB002361AF000000E8000042780072
:104E40000960EF006220B800614050008B69B40037
:104E50008BC9BF000160EF000160EF00740020000B
:104E60000000FB00110009000400D8000140780098
:104E70008BE9B700544C80004822DE006024E1003A
:104E800005003D00544C80004822DE00674242008D
:104E9000044078008BE9B7008A49A900A81E0200E7
:104EA0000000000080CFB300B4E9B70020C0B30019
:104EB000B5E9B7002C0B0200000000008C29EF00C0
:104EC0008BC9BF000000FB00E48720000400400005
:104ED00000027800144078000000FB00644C800061
:104EE0000020E10008003D0080CFB300B4E9B70026
:104EF00040C1B300B5E9B7002C0B02000000000070
:104F00008C29EC00EEFF37006629AE006F003700F9
:104F10006629A90010C0B300ACE9B700221E020048
:104F20000000000020032000EC0A02000000000046
:104F3000AC69EF00221E0200000000008BC9BF0018
:104F40000160EF000080B2000D0032001080B2005E
:104F5000180032003080B200230032001080B2000E
:104F60002E0032007080B2003A0032001080B20091
:104F7000460032003080B200520032005300370049
:104F80000000000001E0B70080EA21008002780004
:104F90009429EF0074012000B44C8800C4922000D2
:104FA000944C8800C54C8800F220020000000000EC
:104FB000460037000000000001E0B70080EA210051
:104FC000800278009429EF00B4032000B44C8800DC
:104FD000A4922000944C8800C54C8800F220020066
:104FE00000000000390037000000000001E0B700B9
:104FF00080EA2100800278009429EF00B4032000A9
:10500000B44C880084922000944C8800C54C8800E1
:10501000F2200200000000002C0037000000000019
:1050200001E0B70080EA210080027800140020002F
:10503000A44C8800F4012000B44C8800E4922000C5
:10504000944C8800C54C8800F2200200000000004B
:105050001E0037000000000001E0B70080EA2100D8
:105060008002780014002000A44C8800C4002000B6
:10507000B44C880004932000944C8800C54C8800F0
:10508000F2200200000000001000370000000000C5
:1050900001E0B70080EA210080027800249320001C
:1050A000944C8800047D2000A44C880024802000BB
:1050B000B44C8800C54C8800F220020000000000BB
:1050C000020037008A09A800000037008609F800AE
:1050D0008809F90048FF370084922000E44C8800DA
:1050E0001E09020000000000304388004143880090
:1050F00030180200000000008C60A800CF02780089
:1051000000000600851F78008829EF008A09A900A1
:10511000A2C8BF008BE9B70080CFB300B4E9B700E5
:10512000F0C0B300B5E9B7002C0B0200000000008E
:105130008A29A8008A49A8008A09AF0078003700A8
:105140002601F8008609F900304C80008809E30048
:1051500002003A008A49AE003B0037008A49AF009E
:105160001D0037008A29A9002361AF008A29A80001
:105170000040EB002361AF000000E800004278002F
:105180000960EF006220B800614050008B69B400F4
:105190008BC9BF000160EF000160EF003400200008
:1051A0000000FB00110009000400D8000140780055
:1051B0008BE9B700544C80004822DE006024E100F7
:1051C00005003D00544C80004822DE00634242004E
:1051D000044078008BE9B7008A49A900841F0200C7
:1051E0000000000080CFB300B4E9B70020C0B300D6
:1051F000B5E9B7002C0B0200000000008C29EF007D
:105200008BC9BF000000FB00248A2000040040007E
:1052100000027800144078000000FB00644C80001D
:105220000020E10008003D0080CFB300B4E9B700E2
:1052300040C1B300B5E9B7002C0B0200000000002C
:105240008C29EC00EEFF37006629AE0031003700F4
:105250006629A90010C0B300ACE9B700221E020005
:105260000000000020032000EC0A02000000000003
:10527000AC69EF00221E0200000000008BC9BF00D5
:105280000160EF000080B200050032001080B20023
:10529000100032003080B2001C0032001D003700C8
:1052A0000000000001E0B70040F821008002780013
:1052B0009C69EF0040C6B3009DE9B700F48B200065
:1052C000D44C8800F54C8800D62202000000000073
:1052D000100037000000000001E0B70040F8210096
:1052E0008002780010C0B3009CE9B700B0C3B300DF
:1052F0009DE9B700048E2000D44C8800F54C88004E
:10530000D622020000000000020037008A09A8002F
:10531000000037008609F8008809F90086FF370089
:10532000CF02780000000600851F78008829EF0072
:105330008A09A900A6C8BF008BE9B70080CFB300D7
:10534000B4E9B700F0C0B300B5E9B7002C0B020018
:10535000000000008A29A8008A49A8008A09AF0035
:105360008C0037002601F8008609F900304C8000D7
:105370008809E30002003A008A49AE003B0037008A
:105380008A49AF001D0037008A29A9002361AF00B8
:105390008A29A8000040EB002361AF000000E8006C
:1053A000004278000960EF006220B80061405000C0
:1053B0008B69B4008BC9BF000160EF000160EF0092
:1053C000540020000000FB00110009000400D80078
:1053D000014078008BE9B700544C80004822DE0081
:1053E0006024E10005003D00544C80004822DE00AE
:1053F00065424200044078008BE9B7008A49A90061
:10540000E61F02000000000080CFB300B4E9B7003F
:1054100020C0B300B5E9B7002C0B0200000000006B
:105420008C29EF008BC9BF000000FB00648A2000BC
:105430000400400000027800144078000000FB00E7
:10544000644C80000020E10008003D0080CFB300E4
:10545000B4E9B70040C1B300B5E9B7002C0B0200B6
:10546000000000008C29EC00EEFF37006629AE003A
:10547000450037006629A90010C0B300ACE9B700A9
:10548000221E02000000000020032000EC0A02009F
:1054900000000000AC69EF00221E020000000000C6
:1054A0008BC9BF000160EF000080B200090032002C
:1054B0001080B2000B0032003080B20016003200C3
:1054C0001080B200210032007080B2002C00320047
:1054D0002D0037008528AA00E61F0200000000000A
:1054E000290037000000000001E0B70060FE210045
:1054F000800278009429EF00848B2000944C88006F
:1055000074162000B44C8800C54C8800F2200200BC
:10551000000000001C0037000000000001E0B700A0
:1055200060FE2100800278009C69EF00F0CFB3009C
:105530009DE9B700A48B2000D44C8800F54C88006E
:10554000D6220200000000000F003700000000001B
:1055500001E0B70060FE2100800278009C69EF0046
:10556000F0CFB3009DE9B700B48B2000D44C880085
:10557000F54C8800D622020000000000020037002F
:105580008A09A800000037008609F8008809F90098
:1055900072FF3700CF02780000000600851F7800F8
:1055A0008829EF008A09A900ACC8BF008BE9B700C1
:1055B00080CFB300B4E9B700F0C0B300B5E9B700DD
:1055C0002C0B0200000000008A29A8008A49A800CC
:1055D0008A09AF00790037002601F8008609F90032
:1055E000304C80008809E30002003A008A49AE008E
:1055F0003B0037008A49AF001D0037008A29A90007
:105600002361AF008A29A8000040EB002361AF00AE
:105610000000E800004278000960EF006220B80056
:10562000614050008B69B4008BC9BF000160EF007E
:105630000160EF00340020000000FB0011000900B1
:105640000400D800014078008BE9B700544C80007A
:105650004822DE006024E10005003D00544C80003B
:105660004822DE0063424200044078008BE9B70024
:105670008A49A900902002000000000080CFB300FA
:10568000B4E9B70020C0B300B5E9B7002C0B0200A5
:10569000000000008C29EF008BC9BF000000FB0058
:1056A000C48A200004004000000278001440780002
:1056B0000000FB00644C80000020E10008003D0079
:1056C00080CFB300B4E9B70040C1B300B5E9B7007B
:1056D0002C0B0200000000008C29EC00EEFF3700CC
:1056E0006629AE00320037006629A90010C0B30059
:1056F000ACE9B700221E02000000000020032000D9
:10570000EC0A020000000000AC69EF00221E02005B
:10571000000000008BC9BF000160EF000080B200F4
:10572000050032001080B200110032003080B2005B
:105730001D0032001E0037000000000001E0B7002D
:10574000000922008002780010C0B3009CE9B70075
:1057500040C6B3009DE9B700348B2000D44C8800CC
:10576000F54C8800D622020000000000100037002F
:105770000000000001E0B70000092200800278006C
:1057800010C0B3009CE9B70010C0B3009DE9B7009A
:10579000E48B2000D44C8800F54C8800D62202000F
:1057A00000000000020037008A09A800000037004E
:1057B0008609F8008809F90085FF3700CF027800D4
:1057C000000006004E0B020000000000048C2000C8
:1057D000E44B8800010020000100780080020200F4
:1057E000000000008100E800811F7800801F780021
:1057F0004F007800721C020000000000CF0078000B
:10580000300020000008E600F3FF3700104780005A
:1058100044002800801C02000000000000C2B30009
:10582000721C020000000000404780005400280065
:10583000801C020000000000048D2000E44B880062
:1058400001002000010078009A0202000000000020
:105850008100E800811F7800801F78004F007800E9
:10586000721C020000000000CF0078003000200011
:105870000008E600F3FF37002047800044002800BE
:10588000801C02000000000000C2B300721C020075
:105890000000000000C2B300721C02000000000003
:1058A0005047800054002800801C020000000000C7
:1058B000D0C9B300DFE8B700901D0200000000006F
:1058C00000000600851F78008829EF008A09A900DA
:1058D000B0C8BF008BE9B70080CFB300B4E9B70010
:1058E000F0C0B300B5E9B7002C0B020000000000C7
:1058F0008A29A8008A49A8008A09AF005F003700FA
:105900002601F8008609F900304C80008809E30080
:1059100002003A008A49AE00390037008A49AF00D8
:105920001D0037008A29A9002361AF008A29A80039
:105930000040EB002361AF000000E8000042780067
:105940000960EF006220B800614050008B69B4002C
:105950008BC9BF000160EF000160EF003400200040
:105960000000FB00110009000400D800014078008D
:105970008BE9B700544C80004822DE006024E1002F
:1059800005003D00544C80004822DE006342420086
:10599000044078008BE9B7008A49A90080CFB300A2
:1059A000B4E9B70020C0B300B5E9B7002C0B020082
:1059B000000000008C29EF008BC9BF000000FB0035
:1059C000048B20000400400000027800144078009E
:1059D0000000FB00644C80000020E10008003D0056
:1059E00080CFB300B4E9B70040C1B300B5E9B70058
:1059F0002C0B0200000000008C29EC00EEFF3700A9
:105A00006629AE00180037006629A90010C0B3004F
:105A1000ACE9B700221E02000000000020032000B5
:105A2000EC0A020000000000AC69EF00221E020038
:105A3000000000008BC9BF000160EF000080B200D1
:105A4000050032001080B200040032003080B20045
:105A50000300320004003700030037000200370063
:105A60008A09A80000003700E22B020000000000B5
:105A70008609F8008809F9009FFF3700CF027800F7
:105A800000000600851F78008029EF008209A90028
:105A900086C8BF0083E9B70080CFB300B4E9B70080
:105AA000F0C0B300B5E9B7002C0B02000000000005
:105AB0008229A8008249A8008508A8008209AF00B1
:105AC0007F0037002601F8007E09F900F04B8000C6
:105AD0008009E30002003A008249AE003B00370033
:105AE0008249AF001D0037008229A9002361AF0061
:105AF0008229A8000040EB002361AF000000E8000D
:105B0000004278000960EF006220B8006140500058
:105B10008369B40083C9BF000160EF000160EF003A
:105B2000940020000000FB00110009000400D800D0
:105B30000140780083E9B700144C80004822DE0061
:105B40006024E10005003D00144C80004822DE0086
:105B5000694242000440780083E9B7008249A90005
:105B6000C41D02000000000080CFB300B4E9B700FC
:105B700020C0B300B5E9B7002C0B02000000000004
:105B80008429EF0083C9BF000000FB006488200067
:105B90000400400000027800144078000000FB0080
:105BA000244C80000020E10008003D0080CFB300BD
:105BB000B4E9B70040C1B300B5E9B7002C0B02004F
:105BC000000000008429EC00EEFF37006629AE00DB
:105BD000380037006629A90010C0B300ACE9B7004F
